:1000000039C053C052C051C050C04FC04EC04DC087
:100010004CC04BC04AC046C248C047C046C045C09D
:1000200044C005A84CCDB2D44EB93836A9020C5004
:10003000B9918688083CA6AAAA2ABE000000803F83
:1000400000003A00370000003B0038000000390093
:100050003600010101010101010102020201020455
:100060000810204080040201000000000004030288
:100070000100000011241FBECFE5D2E0DEBFCDBFDE
:1000800010E0A0E6B0E0EEE5FEE002C005900D92C3
:10009000A436B107D9F720E0A4E6B0E001C01D9274
:1000A000AF37B207E1F748D2D8C6AACF8230A1F065
:1000B00018F4813069F00895833019F0843029F004
:1000C00008958FB58F778FBD08958FB58F7DFBCF46
:1000D00080B78F7780BF089580B78F7DFBCF1F9348
:1000E000CF93DF93282F30E0F901E859FF4F849137
:1000F000F901E35AFF4FD491F901EE5AFF4FC49131
:10010000CC23A1F0162F8111D1DFEC2FF0E0EE0F00
:10011000FF1FEA5BFF4FA591B4918FB7F894EC9164
:10012000111108C0D095DE23DC938FBFDF91CF91F2
:100130001F910895DE2BF8CFCF93DF9390E0FC0161
:10014000E35AFF4F24918E5A9F4FFC0184918823DC
:10015000D1F090E0880F991FFC01E05CFF4FA59162
:10016000B491FC01EA5BFF4FC591D491623071F408
:100170009FB7F8943C91822F809583238C93E881DC
:100180002E2B28839FBFDF91CF9108958FB7F894CE
:10019000EC912E2B2C938FBFF6CF2FB7F894609154
:1001A0006A0070916B0080916C0090916D002FBF80
:1001B0000895CF93DF93C82F682F6095617085E015
:1001C0008EDFD1E0C1FB662760F96D2783E087DF12
:1001D000C2FB662760F96D2782E081DFC3FB6627DB
:1001E00060F96D2781E07BDFC4FB662760F96D272E
:1001F00080E075DFC5FB662760F96D2784E0DF913D
:10020000CF916DCF4F925F926F927F928F929F921C
:10021000AF92BF92CF92DF92EF92FF920F931F9314
:10022000CF93C82FBADF5FB7F894C0906500D09025
:100230006600E0906700F090680042B708B600FEE4
:1002400007C04F3F29F02FEFC21AD20AE20AF20A82
:100250005FBFFE2CED2CDC2CCC24C40ED11CE11C89
:10026000F11C33E0CC0CDD1CEE1CFF1C3A95D1F7E1
:10027000C33009F497C0C0F4C13009F46BC0C23078
:1002800009F47AC080916400CF911F910F91FF9083
:10029000EF90DF90CF90BF90AF909F908F907F9026
:1002A0006F905F904F9085CFC53009F4C7C008F4B8
:1002B0009EC0C63039F70AD420E030E04FE953E45D
:1002C0009DD34B015C01C701B60120E23EE440E052
:1002D00050E009D3FBD32B013C0110E000E0C0E06B
:1002E000CC0FB801012E000C880B990BF1D322E939
:1002F0003AE046E85FE39CD4A501940117D303D507
:1003000020E030E040E85FE311D320E030E040E05F
:100310005FE38ED49B01AC018BD420E030E44CE948
:1003200056E486D46B017C0120E030E04AEF54E4CF
:1003300061D387FD07C0A7019601C301B2015AD35B
:1003400087FDC1600F5F1F4F0630110549F6C0934E
:10035000640098CF24E630E040E050E0C4D2CA0107
:10036000B90126E030E040E050E0BDD281E001C0BC
:10037000880F6A95EAF713C024E630E040E050E0C9
:10038000B2D2CA01B90126E030E040E050E0ABD281
:1003900081E090E001C0880F6A95EAF7809580932C
:1003A000640070CF00917400109175002091760068
:1003B000309177006B017C01C01AD10AE20AF30A7E
:1003C00097018601053611052105310508F45ACF3C
:1003D000609374007093750080937600909377001B
:1003E000F6D125E030E040E050E061D2BFCF00918F
:1003F00074001091750020917600309177006B01A8
:100400007C01C01AD10AE20AF30A97018601053677
:1004100011052105310508F435CF60937400709300
:1004200075008093760090937700D1D12FEF30E064
:1004300040E050E03CD26093640024CF47D320E0FA
:1004400030E04FE953E4DAD25ED420E030E040E817
:100450005FE36CD220E030E040E05FE3E9D320E0EE
:1004600030E44CE956E4E4D34B015C0120E030E099
:100470004AEF54E4BFD287FF03C0812C912C540172
:10048000C701B60120E23EE440E050E02CD21ED38A
:10049000A5019401AFD287FF02C08FEF80CF1092E9
:1004A0006400F0CE1F920F920FB60F9211242F937B
:1004B0003F938F939F93AF93BF9380916A009091E6
:1004C0006B00A0916C00B0916D003091690026E046
:1004D000230F2D3758F50296A11DB11D20936900F9
:1004E00080936A0090936B00A0936C00B0936D00B2
:1004F0008091650090916600A0916700B0916800BE
:100500000196A11DB11D8093650090936600A09394
:100510006700B0936800BF91AF919F918F913F9119
:100520002F910F900FBE0F901F90189529E8230F61
:100530000396A11DB11DD2CF789480B7826080BF91
:1005400080B7816080BF83B7826083BF83B78160DB
:1005500083BF89B7816089BF1EBC8EB582608EBDA6
:100560008EB581608EBD8FB581608FBD329A319A14
:100570003098379A62E08AE0DFDD61E085E0DCDD1B
:1005800061E083E0D9DD61E082E0D6DD61E081E019
:10059000D3DD61E080E0D0DD61E084E0CDDD01E02D
:1005A00010E027E0822E912C38E8C32E33E1D32EC1
:1005B000E12CF12C46E0442E512C612C712C33247B
:1005C000339490E0A92E90E0B92EE2E7F0E0849118
:1005D000E7E6F0E0C491ECE5F0E0D491DD2309F426
:1005E00092C0811163DDED2FF0E0EE0FFF1FE45BA1
:1005F000FF4FA591B4918C91C82391E080E009F45C
:1006000090E0C92FD82FCE01F1E08F27282F21703D
:10061000222EC3DD10927E0020917300221619F164
:1006200020917200221641F060936E0070936F006B
:10063000809370009093710020916E0030916F0054
:100640004091700050917100621B730B840B950BED
:100650006F3171058105910530F020927300CD2B2B
:1006600011F430927E002092720080917E008823E7
:10067000E1F0C091780091DD6093790070937A0089
:1006800080937B0090937C0060937400709375005E
:10069000809376009093770030927D008C2F90E0CD
:1006A0000196B401B3D380937800C0917800809113
:1006B0007D00882389F171DD2091790030917A00E5
:1006C00040917B0050917C00621B730B840B950B57
:1006D000693E73408105910510F010927D008C2FCA
:1006E00090E0C63098F00697F80102C0EE0FFF1FA9
:1006F0008A95E2F7CF0180625CDDA114B10409F4B0
:1007000064CF7EDC5CCFD0E0C0E07DCF802F01C025
:10071000880FCA95EAF7F0CF8C2FC1110BC03DDDD1
:10072000A7019601E0D0CA01B901A3019201DBD073
:1007300081E0860F67DDE1CF8F929F92AF92BF92EB
:10074000CF92DF92EF92FF92CF93DF93EC0168811B
:1007500079818A819B81611571058105910521F45B
:1007600064E279ED8BE597E02DE133EF41E050E075
:100770009ED049015A0127EA31E440E050E07ED0A2
:100780006B017C012CEE34EF4FEF5FEFC501B4013C
:1007900075D0C60ED71EE81EF91EF7FE06C081E012
:1007A000C81AD108E10880E8F80AC882D982EA822A
:1007B000FB82C701B6019F77DF91CF91FF90EF9049
:1007C000DF90CF90BF90AF909F908F9008958F92C1
:1007D0009F92AF92BF92CF92DF92EF92FF92609181
:1007E00060007091610080916200909163006115DA
:1007F00071058105910521F464E279ED8BE597E0BF
:100800002DE133EF41E050E052D049015A0127EA8F
:1008100031E440E050E032D06B017C012CEE34EF4B
:100820004FEF5FEFC501B40129D0C60ED71EE81EF9
:10083000F91EF7FE06C081E0C81AD108E10880E879
:10084000F80AC0926000D0926100E0926200F092DB
:100850006300C701B6019F77FF90EF90DF90CF90C4
:10086000BF90AF909F908F900895609360007093B9
:10087000610080936200909363000895EE27FF2744
:10088000AA27BB2708C0A20FB31FE41FF51F220F22
:10089000331F441F551F969587957795679598F355
:1008A0007040A9F7009799F7BD01CF010895052E73
:1008B00097FB16F400940FD057FD05D014D007FC19
:1008C00002D046F408C050954095309521953F4F91
:1008D0004F4F5F4F089590958095709561957F4F2C
:1008E0008F4F9F4F0895A1E21A2EAA1BBB1BFD013B
:1008F0000DC0AA1FBB1FEE1FFF1FA217B307E407FF
:10090000F50720F0A21BB30BE40BF50B661F771F56
:10091000881F991F1A9469F7609570958095909536
:100920009B01AC01BD01CF0108955058BB27AA27F8
:100930000ED044C135D130F03AD120F031F49F3F90
:1009400011F41EF42AC10EF4E095E7FB20C1E92F53
:1009500046D180F3BA17620773078407950718F02A
:1009600071F49EF55EC10EF4E0950B2EBA2FA02D0A
:100970000B01B90190010C01CA01A0011124FF274C
:10098000591B99F0593F50F4503E68F11A16F04047
:10099000A22F232F342F4427585FF3CF4695379546
:1009A0002795A795F0405395C9F77EF41F16BA0B0B
:1009B000620B730B840BBAF09150A1F0FF0FBB1FB9
:1009C000661F771F881FC2F70EC0BA0F621F731F02
:1009D000841F48F4879577956795B795F7959E3F5F
:1009E00008F0B3CF9395880F08F09927EE0F9795ED
:1009F00087950895A8D008F481E008950CD0DEC052
:100A0000D6D040F0CDD030F021F45F3F19F0BFC018
:100A1000511108C1C2C0E3D098F39923C9F35523FB
:100A2000B1F3951B550BBB27AA27621773078407E1
:100A300038F09F5F5F4F220F331F441FAA1FA9F397
:100A400033D00E2E3AF0E0E830D091505040E69589
:100A5000001CCAF729D0FE2F27D0660F771F881FEA
:100A6000BB1F261737074807AB07B0E809F0BB0BD9
:100A7000802DBF01FF2793585F4F2AF09E3F5105FD
:100A800068F085C0CFC05F3FECF3983EDCF38695FD
:100A900077956795B795F7959F5FC9F7880F911D73
:100AA0009695879597F90895E1E0660F771F881F5F
:100AB000BB1F621773078407BA0720F0621B730B12
:100AC000840BBA0BEE1F88F7E0950895E89409C0EF
:100AD00097FB3EF490958095709561957F4F8F4F71
:100AE0009F4F9923A9F0F92F96E9BB279395F69587
:100AF000879577956795B795F111F8CFFAF4BB0F05
:100B000011F460FF1BC06F5F7F4F8F4F9F4F16C068
:100B1000882311F096E911C0772321F09EE8872FF2
:100B2000762F05C0662371F096E8862F70E060E0AE
:100B30002AF09A95660F771F881FDAF7880F969527
:100B4000879597F90895990F0008550FAA0BE0E8CB
:100B5000FEEF16161706E807F907C0F0121613067F
:100B6000E407F50798F0621B730B840B950B39F4BF
:100B70000A2661F0232B242B252B21F408950A2625
:100B800009F4A140A6958FEF811D811D089597F965
:100B90009F6780E870E060E008959FEF80EC089523
:100BA00000240A941616170618060906089500244C
:100BB0000A9412161306140605060895092E0394C6
:100BC000000C11F4882352F0BB0F40F4BF2B11F43A
:100BD00060FF04C06F5F7F4F8F4F9F4F089557FD99
:100BE0009058440F551F59F05F3F71F04795880F9B
:100BF00097FB991F61F09F3F79F087950895121632
:100C000013061406551FF2CF4695F1DF08C01616DD
:100C100017061806991FF1CF86957105610508948E
:100C20000895E894BB2766277727CB0197F90895A5
:100C30000AD0C4CFB5DF28F0BADF18F0952309F049
:100C4000A6CFABCFEFCFCBDFA8F39923D9F35523B2
:100C5000C9F3950F50E0551FAA27EE27FF27BB27A2
:100C600000240894679520F4E20FF31FB41F0A1EB6
:100C7000220F331F441FAA1F6695A9F7779530F4FA
:100C8000F30FB41F0A1E121E08F46395330F441F9E
:100C9000AA1F221F769599F7879520F4B40F0A1E94
:100CA000121E631F440FAA1F221F331F8695A9F728
:100CB000862F712D602D11249F5750408AF0E1F04E
:100CC00088234AF0EE0FFF1FBB1F661F771F881F88
:100CD00091505040A9F79E3F510570F058CFA2CFD8
:100CE0005F3FECF3983EDCF3869577956795B79573
:100CF000F795E7959F5FC1F7FE2B880F911D96959D
:100D0000879597F908959F9305D00F9007FCEE5FA4
:100D100028C043CF6CDFE8F3E894E0E0BB279F579F
:100D2000F0F02AED3FE049EC06C0EE0FBB0F661F66
:100D3000771F881F28F0B23A62077307840728F0EC
:100D4000B25A620B730B840BE3959A9572F7803855
:100D500030F49A95BB0F661F771F881FD2F7904813
:100D600013C0EF93E0FF06C0A2EA2AED3FE049EC92
:100D70005FEBEDDD23DF0F90039401FC9058E2E27E
:100D8000F0E00EC09F3F31F0915020F487957795A9
:100D90006795B795880F911D9695879597F9089552
:100DA0009F938F937F936F93FF93EF939B01AC017E
:100DB0003FDFEF91FF9105D02F913F914F915F91D0
:100DC00037CFDF93CF931F930F93FF92EF92DF9272
:100DD0007B018C01689405C0DA2EEF0134DFFE013F
:100DE000E894A5912591359145915591AEF3EF0188
:100DF000AEDDFE019701A801DA9479F7DF90EF905C
:100E0000FF900F911F91CF91DF91089597FB072ECF
:100E100016F4009406D077FD08D00BD007FC05D05F
:100E20003EF4909581959F4F0895709561957F4F01
:100E30000895AA1BBB1B51E107C0AA1FBB1FA61721
:100E4000B70710F0A61BB70B881F991F5A95A9F773
:0E0E500080959095BC01CD010895F894FFCFD8
:040E5E00010000008F
:00000001FF
